{
  "contractName": "NaiveEscrow",
  "abi": [
    {
      "inputs": [
        {
          "internalType": "string",
          "name": "name_",
          "type": "string"
        },
        {
          "internalType": "address",
          "name": "arbitror_",
          "type": "address"
        }
      ],
      "stateMutability": "nonpayable",
      "type": "constructor"
    },
    {
      "anonymous": false,
      "inputs": [
        {
          "indexed": false,
          "internalType": "address",
          "name": "depositor",
          "type": "address"
        },
        {
          "indexed": false,
          "internalType": "address",
          "name": "receipient",
          "type": "address"
        },
        {
          "indexed": false,
          "internalType": "uint256",
          "name": "amount",
          "type": "uint256"
        }
      ],
      "name": "Deposit",
      "type": "event"
    },
    {
      "anonymous": false,
      "inputs": [
        {
          "indexed": false,
          "internalType": "address",
          "name": "depositor",
          "type": "address"
        },
        {
          "indexed": false,
          "internalType": "address",
          "name": "receipient",
          "type": "address"
        },
        {
          "indexed": false,
          "internalType": "uint256",
          "name": "amount",
          "type": "uint256"
        }
      ],
      "name": "Unlock",
      "type": "event"
    },
    {
      "anonymous": false,
      "inputs": [
        {
          "indexed": false,
          "internalType": "address",
          "name": "depositor",
          "type": "address"
        },
        {
          "indexed": false,
          "internalType": "address",
          "name": "receipient",
          "type": "address"
        },
        {
          "indexed": false,
          "internalType": "uint256",
          "name": "amount",
          "type": "uint256"
        }
      ],
      "name": "Withdraw",
      "type": "event"
    },
    {
      "inputs": [],
      "name": "name",
      "outputs": [
        {
          "internalType": "string",
          "name": "",
          "type": "string"
        }
      ],
      "stateMutability": "view",
      "type": "function",
      "constant": true
    },
    {
      "inputs": [
        {
          "internalType": "address",
          "name": "receipient",
          "type": "address"
        },
        {
          "internalType": "uint256",
          "name": "amount",
          "type": "uint256"
        }
      ],
      "name": "deposit",
      "outputs": [
        {
          "internalType": "bool",
          "name": "",
          "type": "bool"
        }
      ],
      "stateMutability": "payable",
      "type": "function",
      "payable": true
    },
    {
      "inputs": [],
      "name": "withdraw",
      "outputs": [
        {
          "internalType": "bool",
          "name": "",
          "type": "bool"
        }
      ],
      "stateMutability": "nonpayable",
      "type": "function"
    },
    {
      "inputs": [
        {
          "internalType": "address",
          "name": "depositor",
          "type": "address"
        }
      ],
      "name": "unlock",
      "outputs": [
        {
          "internalType": "bool",
          "name": "",
          "type": "bool"
        }
      ],
      "stateMutability": "nonpayable",
      "type": "function"
    },
    {
      "inputs": [
        {
          "internalType": "address",
          "name": "depositor",
          "type": "address"
        }
      ],
      "name": "depositorInfo",
      "outputs": [
        {
          "internalType": "address",
          "name": "receipient",
          "type": "address"
        },
        {
          "internalType": "uint256",
          "name": "amount",
          "type": "uint256"
        },
        {
          "internalType": "uint256",
          "name": "createTime",
          "type": "uint256"
        }
      ],
      "stateMutability": "view",
      "type": "function",
      "constant": true
    },
    {
      "inputs": [],
      "name": "totalBalance",
      "outputs": [
        {
          "internalType": "uint256",
          "name": "",
          "type": "uint256"
        }
      ],
      "stateMutability": "view",
      "type": "function",
      "constant": true
    }
  ],
  "bytecode": "0x60806040523480156200001157600080fd5b506040516200187638038062001876833981810160405281019062000037919062000213565b33600160006101000a81548173ffffffffffffffffffffffffffffffffffffffff021916908373ffffffffffffffffffffffffffffffffffffffff16021790555080600260006101000a81548173ffffffffffffffffffffffffffffffffffffffff021916908373ffffffffffffffffffffffffffffffffffffffff1602179055508160009080519060200190620000d1929190620000da565b505050620003ec565b828054620000e8906200033e565b90600052602060002090601f0160209004810192826200010c576000855562000158565b82601f106200012757805160ff191683800117855562000158565b8280016001018555821562000158579182015b82811115620001575782518255916020019190600101906200013a565b5b5090506200016791906200016b565b5090565b5b80821115620001865760008160009055506001016200016c565b5090565b6000620001a16200019b84620002a1565b6200026d565b905082815260208101848484011115620001ba57600080fd5b620001c784828562000308565b509392505050565b600081519050620001e081620003d2565b92915050565b600082601f830112620001f857600080fd5b81516200020a8482602086016200018a565b91505092915050565b600080604083850312156200022757600080fd5b600083015167ffffffffffffffff8111156200024257600080fd5b6200025085828601620001e6565b92505060206200026385828601620001cf565b9150509250929050565b6000604051905081810181811067ffffffffffffffff82111715620002975762000296620003a3565b5b8060405250919050565b600067ffffffffffffffff821115620002bf57620002be620003a3565b5b601f19601f8301169050602081019050919050565b6000620002e182620002e8565b9050919050565b600073ffffffffffffffffffffffffffffffffffffffff82169050919050565b60005b83811015620003285780820151818401526020810190506200030b565b8381111562000338576000848401525b50505050565b600060028204905060018216806200035757607f821691505b602082108114156200036e576200036d62000374565b5b50919050565b7f4e487b7100000000000000000000000000000000000000000000000000000000600052602260045260246000fd5b7f4e487b7100000000000000000000000000000000000000000000000000000000600052604160045260246000fd5b620003dd81620002d4565b8114620003e957600080fd5b50565b61147a80620003fc6000396000f3fe6080604052600436106100555760003560e01c806306fdde031461005a5780632f6c493c146100855780633ccfd60b146100c25780633d19d66b146100ed57806347e7ef241461012c578063ad7a672f1461015c575b600080fd5b34801561006657600080fd5b5061006f610187565b60405161007c9190611135565b60405180910390f35b34801561009157600080fd5b506100ac60048036038101906100a79190610d8f565b610219565b6040516100b9919061111a565b60405180910390f35b3480156100ce57600080fd5b506100d76105ad565b6040516100e4919061111a565b60405180910390f35b3480156100f957600080fd5b50610114600480360381019061010f9190610d8f565b610918565b604051610123939291906110e3565b60405180910390f35b61014660048036038101906101419190610db8565b610a82565b604051610153919061111a565b60405180910390f35b34801561016857600080fd5b50610171610ccd565b60405161017e9190611237565b60405180910390f35b60606000805461019690611375565b80601f01602080910402602001604051908101604052809291908181526020018280546101c290611375565b801561020f5780601f106101e45761010080835404028352916020019161020f565b820191906000526020600020905b8154815290600101906020018083116101f257829003601f168201915b5050505050905090565b6000600260009054906101000a900473ffffffffffffffffffffffffffffffffffffffff1673ffffffffffffffffffffffffffffffffffffffff163373ffffffffffffffffffffffffffffffffffffffff16146102ab576040517f08c379a00000000000000000000000000000000000000000000000000000000081526004016102a2906111f7565b60405180910390fd5b600073ffffffffffffffffffffffffffffffffffffffff168273ffffffffffffffffffffffffffffffffffffffff16141561031b576040517f08c379a000000000000000000000000000000000000000000000000000000000815260040161031290611177565b60405180910390fd5b6000600360008473ffffffffffffffffffffffffffffffffffffffff1673ffffffffffffffffffffffffffffffffffffffff1681526020019081526020016000206002015414156103a1576040517f08c379a0000000000000000000000000000000000000000000000000000000008152600401610398906111d7565b60405180910390fd5b6000600360008473ffffffffffffffffffffffffffffffffffffffff1673ffffffffffffffffffffffffffffffffffffffff16815260200190815260200160002060000160009054906101000a900473ffffffffffffffffffffffffffffffffffffffff1690506000600360008573ffffffffffffffffffffffffffffffffffffffff1673ffffffffffffffffffffffffffffffffffffffff1681526020019081526020016000206001015490508173ffffffffffffffffffffffffffffffffffffffff166108fc829081150290604051600060405180830381858888f19350505050158015610495573d6000803e3d6000fd5b506040518060600160405280600073ffffffffffffffffffffffffffffffffffffffff168152602001600081526020016000815250600360008673ffffffffffffffffffffffffffffffffffffffff1673ffffffffffffffffffffffffffffffffffffffff16815260200190815260200160002060008201518160000160006101000a81548173ffffffffffffffffffffffffffffffffffffffff021916908373ffffffffffffffffffffffffffffffffffffffff16021790555060208201518160010155604082015181600201559050507fc1c90b8e0705b212262c0dbd7580efe1862c2f185bf96899226f7596beb2db0984838360405161059a93929190611075565b60405180910390a1600192505050919050565b60008062015180600360003373ffffffffffffffffffffffffffffffffffffffff1673ffffffffffffffffffffffffffffffffffffffff16815260200190815260200160002060020154610601919061126e565b90506000600360003373ffffffffffffffffffffffffffffffffffffffff1673ffffffffffffffffffffffffffffffffffffffff168152602001908152602001600020600201541415610689576040517f08c379a0000000000000000000000000000000000000000000000000000000008152600401610680906111d7565b60405180910390fd5b8042116106cb576040517f08c379a00000000000000000000000000000000000000000000000000000000081526004016106c290611157565b60405180910390fd5b6000600360003373ffffffffffffffffffffffffffffffffffffffff1673ffffffffffffffffffffffffffffffffffffffff16815260200190815260200160002060000160009054906101000a900473ffffffffffffffffffffffffffffffffffffffff1690506000600360003373ffffffffffffffffffffffffffffffffffffffff1673ffffffffffffffffffffffffffffffffffffffff1681526020019081526020016000206001015490503373ffffffffffffffffffffffffffffffffffffffff166108fc600360003373ffffffffffffffffffffffffffffffffffffffff1673ffffffffffffffffffffffffffffffffffffffff168152602001908152602001600020600101549081150290604051600060405180830381858888f19350505050158015610801573d6000803e3d6000fd5b506040518060600160405280600073ffffffffffffffffffffffffffffffffffffffff168152602001600081526020016000815250600360003373ffffffffffffffffffffffffffffffffffffffff1673ffffffffffffffffffffffffffffffffffffffff16815260200190815260200160002060008201518160000160006101000a81548173ffffffffffffffffffffffffffffffffffffffff021916908373ffffffffffffffffffffffffffffffffffffffff16021790555060208201518160010155604082015181600201559050507f9b1bfa7fa9ee420a16e124f794c35ac9f90472acc99140eb2f6447c714cad8eb338383604051610906939291906110ac565b60405180910390a16001935050505090565b60008060008073ffffffffffffffffffffffffffffffffffffffff168473ffffffffffffffffffffffffffffffffffffffff16141561098c576040517f08c379a000000000000000000000000000000000000000000000000000000000815260040161098390611177565b60405180910390fd5b600360008573ffffffffffffffffffffffffffffffffffffffff1673ffffffffffffffffffffffffffffffffffffffff16815260200190815260200160002060000160009054906101000a900473ffffffffffffffffffffffffffffffffffffffff169250600360008573ffffffffffffffffffffffffffffffffffffffff1673ffffffffffffffffffffffffffffffffffffffff168152602001908152602001600020600101549150600360008573ffffffffffffffffffffffffffffffffffffffff1673ffffffffffffffffffffffffffffffffffffffff1681526020019081526020016000206002015490509193909250565b60008073ffffffffffffffffffffffffffffffffffffffff168373ffffffffffffffffffffffffffffffffffffffff161415610af3576040517f08c379a0000000000000000000000000000000000000000000000000000000008152600401610aea906111b7565b60405180910390fd5b813414610b35576040517f08c379a0000000000000000000000000000000000000000000000000000000008152600401610b2c90611217565b60405180910390fd5b6000600360003373ffffffffffffffffffffffffffffffffffffffff1673ffffffffffffffffffffffffffffffffffffffff1681526020019081526020016000206002015414610bba576040517f08c379a0000000000000000000000000000000000000000000000000000000008152600401610bb190611197565b60405180910390fd5b60405180606001604052808473ffffffffffffffffffffffffffffffffffffffff16815260200134815260200142815250600360003373ffffffffffffffffffffffffffffffffffffffff1673ffffffffffffffffffffffffffffffffffffffff16815260200190815260200160002060008201518160000160006101000a81548173ffffffffffffffffffffffffffffffffffffffff021916908373ffffffffffffffffffffffffffffffffffffffff16021790555060208201518160010155604082015181600201559050507f5548c837ab068cf56a2c2479df0882a4922fd203edb7517321831d95078c5f62338434604051610cbb939291906110ac565b60405180910390a16001905092915050565b6000600260009054906101000a900473ffffffffffffffffffffffffffffffffffffffff1673ffffffffffffffffffffffffffffffffffffffff163373ffffffffffffffffffffffffffffffffffffffff1614610d5f576040517f08c379a0000000000000000000000000000000000000000000000000000000008152600401610d56906111f7565b60405180910390fd5b47905090565b600081359050610d7481611416565b92915050565b600081359050610d898161142d565b92915050565b600060208284031215610da157600080fd5b6000610daf84828501610d65565b91505092915050565b60008060408385031215610dcb57600080fd5b6000610dd985828601610d65565b9250506020610dea85828601610d7a565b9150509250929050565b610dfd8161130c565b82525050565b610e0c816112c4565b82525050565b610e1b816112d6565b82525050565b6000610e2c82611252565b610e36818561125d565b9350610e46818560208601611342565b610e4f81611405565b840191505092915050565b6000610e67602a8361125d565b91507f43616e2062652077697468647261776e20616674657220323420686f7572732060008301527f6f66206465706f736974000000000000000000000000000000000000000000006020830152604082019050919050565b6000610ecd601d8361125d565b91507f4e6f7420612076616c6964206465706f7369746f7220616464726573730000006000830152602082019050919050565b6000610f0d60228361125d565b91507f50726576696f7573206465706f736974206e6f7420646973627572736564207960008301527f65740000000000000000000000000000000000000000000000000000000000006020830152604082019050919050565b6000610f73601e8361125d565b91507f4e6f7420612076616c69642072656365697069656e74206164647265737300006000830152602082019050919050565b6000610fb360108361125d565b91507f4e6f206465706f73697420666f756e64000000000000000000000000000000006000830152602082019050919050565b6000610ff3601a8361125d565b91507f556e617574686f72697a6564206163636573732064656e6965640000000000006000830152602082019050919050565b600061103360198361125d565b91507f4e6f7420656e6f7567682065746865722070726f7669646564000000000000006000830152602082019050919050565b61106f81611302565b82525050565b600060608201905061108a6000830186610e03565b6110976020830185610df4565b6110a46040830184611066565b949350505050565b60006060820190506110c16000830186610e03565b6110ce6020830185610e03565b6110db6040830184611066565b949350505050565b60006060820190506110f86000830186610e03565b6111056020830185611066565b6111126040830184611066565b949350505050565b600060208201905061112f6000830184610e12565b92915050565b6000602082019050818103600083015261114f8184610e21565b905092915050565b6000602082019050818103600083015261117081610e5a565b9050919050565b6000602082019050818103600083015261119081610ec0565b9050919050565b600060208201905081810360008301526111b081610f00565b9050919050565b600060208201905081810360008301526111d081610f66565b9050919050565b600060208201905081810360008301526111f081610fa6565b9050919050565b6000602082019050818103600083015261121081610fe6565b9050919050565b6000602082019050818103600083015261123081611026565b9050919050565b600060208201905061124c6000830184611066565b92915050565b600081519050919050565b600082825260208201905092915050565b600061127982611302565b915061128483611302565b9250827fffffffffffffffffffffffffffffffffffffffffffffffffffffffffffffffff038211156112b9576112b86113a7565b5b828201905092915050565b60006112cf826112e2565b9050919050565b60008115159050919050565b600073ffffffffffffffffffffffffffffffffffffffff82169050919050565b6000819050919050565b60006113178261131e565b9050919050565b600061132982611330565b9050919050565b600061133b826112e2565b9050919050565b60005b83811015611360578082015181840152602081019050611345565b8381111561136f576000848401525b50505050565b6000600282049050600182168061138d57607f821691505b602082108114156113a1576113a06113d6565b5b50919050565b7f4e487b7100000000000000000000000000000000000000000000000000000000600052601160045260246000fd5b7f4e487b7100000000000000000000000000000000000000000000000000000000600052602260045260246000fd5b6000601f19601f8301169050919050565b61141f816112c4565b811461142a57600080fd5b50565b61143681611302565b811461144157600080fd5b5056fea264697066735822122096e1a6879221a5495cf4eccd8b66b8417c14f8750a78f38d4ef573fd39b45dfb64736f6c63430008000033",
  "immutableReferences": {},
  "source": "// SPDX-License-Identifier: GPL-3.0\r\n\r\npragma solidity >=0.7.0 <0.9.0;\r\n\r\nimport \"./INaiveEscrow.sol\";\r\n\r\n\r\ncontract NaiveEscrow is INaiveEscrow {\r\n    string private _name;\r\n    \r\n    address private _owner;\r\n    \r\n    address private _arbitror;\r\n    \r\n    struct DepositInfo {\r\n        address receipient;\r\n        uint256 amount;\r\n        uint256 createTime;\r\n    }\r\n    \r\n    mapping(address => DepositInfo) private _deposits;\r\n    \r\n    constructor(string memory name_, address arbitror_) {\r\n        _owner = msg.sender;\r\n        _arbitror = arbitror_;\r\n        _name = name_;\r\n    }\r\n    \r\n    modifier onlyArbitror {\r\n        require(msg.sender == _arbitror, \"Unauthorized access denied\");\r\n        _;\r\n    }\r\n    \r\n    modifier isEligible {\r\n        uint256 deadline = _deposits[msg.sender].createTime + 24 hours;\r\n        require(_deposits[msg.sender].createTime != 0, \"No deposit found\");\r\n        require(block.timestamp > deadline, \"Can be withdrawn after 24 hours of deposit\");\r\n        _;\r\n    }\r\n    \r\n    function name() external view returns(string memory) {\r\n        return _name;\r\n    }\r\n    \r\n    function deposit(address receipient, uint256 amount) external payable override returns(bool) {\r\n        require(receipient != address(0), \"Not a valid receipient address\");\r\n        require(msg.value == amount, \"Not enough ether provided\");\r\n        require(_deposits[msg.sender].createTime == 0, \"Previous deposit not disbursed yet\");\r\n        \r\n        _deposits[msg.sender] = DepositInfo(receipient, msg.value, block.timestamp);\r\n        \r\n        emit Deposit(msg.sender, receipient, msg.value);\r\n        \r\n        return true;\r\n    }\r\n    \r\n    function withdraw() external isEligible override returns(bool) {\r\n        address receipient = _deposits[msg.sender].receipient;\r\n        uint256 amount = _deposits[msg.sender].amount;\r\n        payable(msg.sender).transfer(_deposits[msg.sender].amount);\r\n        _deposits[msg.sender] = DepositInfo(address(0), 0, 0);\r\n        \r\n        emit Withdraw(msg.sender, receipient, amount);\r\n        return true;\r\n    }\r\n    \r\n    function unlock(address depositor) external onlyArbitror override returns(bool) {\r\n        require(depositor != address(0), \"Not a valid depositor address\");\r\n        require(_deposits[depositor].createTime != 0, \"No deposit found\");\r\n        \r\n        address payable receipient = payable(_deposits[depositor].receipient);\r\n        uint256 amount = _deposits[depositor].amount;\r\n        receipient.transfer(amount);\r\n        \r\n        _deposits[depositor] = DepositInfo(address(0), 0, 0);\r\n        \r\n        emit Unlock(depositor, receipient, amount);\r\n        return true;\r\n    }\r\n    \r\n    // To view a depositor current deposit\r\n    function depositorInfo(address depositor) external view returns(address receipient, uint256 amount, uint256 createTime) {\r\n        require(depositor != address(0), \"Not a valid depositor address\");\r\n        receipient = _deposits[depositor].receipient;\r\n        amount = _deposits[depositor].amount;\r\n        createTime = _deposits[depositor].createTime;\r\n    }\r\n    \r\n    // to check the total balance of the contract\r\n    function totalBalance() external view onlyArbitror returns(uint256) {\r\n        return address(this).balance;\r\n    }\r\n    \r\n}",
  "sourcePath": "G:\\OVE-ALL\\ERA Infotech\\Ethereum\\eth-escrow\\contracts\\contracts\\NaiveEscrow.sol",
  "compiler": {
    "name": "solc",
    "version": "0.8.0+commit.c7dfd78e.Emscripten.clang"
  },
  "schemaVersion": "3.4.3",
  "updatedAt": "2021-10-09T06:48:49.100Z",
  "networkType": "ethereum",
  "devdoc": {
    "kind": "dev",
    "methods": {},
    "version": 1
  },
  "userdoc": {
    "kind": "user",
    "methods": {},
    "version": 1
  }
}